{
  "contractName": "HistoriasContract",
  "abi": [
    {
      "anonymous": false,
      "inputs": [
        {
          "indexed": false,
          "internalType": "string",
          "name": "",
          "type": "string"
        }
      ],
      "name": "Deposit",
      "type": "event"
    },
    {
      "inputs": [
        {
          "internalType": "string",
          "name": "_nom",
          "type": "string"
        },
        {
          "internalType": "address",
          "name": "_cus",
          "type": "address"
        },
        {
          "internalType": "string",
          "name": "_desc",
          "type": "string"
        },
        {
          "internalType": "uint32",
          "name": "_fec",
          "type": "uint32"
        },
        {
          "internalType": "string",
          "name": "_hashs",
          "type": "string"
        },
        {
          "internalType": "uint256",
          "name": "_m",
          "type": "uint256"
        }
      ],
      "name": "savHis",
      "outputs": [],
      "stateMutability": "nonpayable",
      "type": "function"
    },
    {
      "inputs": [
        {
          "internalType": "address",
          "name": "_empHas",
          "type": "address"
        },
        {
          "internalType": "string",
          "name": "_nom",
          "type": "string"
        },
        {
          "internalType": "string",
          "name": "_doc",
          "type": "string"
        },
        {
          "internalType": "string",
          "name": "_des",
          "type": "string"
        },
        {
          "internalType": "bool",
          "name": "_state",
          "type": "bool"
        },
        {
          "internalType": "bool",
          "name": "_onlyReader",
          "type": "bool"
        }
      ],
      "name": "registerEmployed",
      "outputs": [],
      "stateMutability": "nonpayable",
      "type": "function"
    },
    {
      "inputs": [
        {
          "internalType": "address",
          "name": "_emp",
          "type": "address"
        }
      ],
      "name": "disabled",
      "outputs": [],
      "stateMutability": "nonpayable",
      "type": "function"
    },
    {
      "inputs": [
        {
          "internalType": "uint256",
          "name": "_id",
          "type": "uint256"
        },
        {
          "internalType": "address",
          "name": "_cust",
          "type": "address"
        }
      ],
      "name": "setCustodi",
      "outputs": [],
      "stateMutability": "nonpayable",
      "type": "function"
    },
    {
      "inputs": [
        {
          "internalType": "uint256",
          "name": "_id",
          "type": "uint256"
        }
      ],
      "name": "getH",
      "outputs": [
        {
          "internalType": "string",
          "name": "_n",
          "type": "string"
        },
        {
          "internalType": "address",
          "name": "_c",
          "type": "address"
        },
        {
          "internalType": "string",
          "name": "_d",
          "type": "string"
        },
        {
          "internalType": "uint32",
          "name": "_f",
          "type": "uint32"
        },
        {
          "internalType": "string",
          "name": "_h",
          "type": "string"
        },
        {
          "internalType": "uint256",
          "name": "_m",
          "type": "uint256"
        }
      ],
      "stateMutability": "view",
      "type": "function",
      "constant": true
    }
  ],
  "bytecode": "0x608060405260008055600060015573308925e628aa5011488ce4306b61571d695c08dd600260006101000a81548173ffffffffffffffffffffffffffffffffffffffff021916908373ffffffffffffffffffffffffffffffffffffffff16021790555034801561006e57600080fd5b5061111f8061007e6000396000f3fe608060405234801561001057600080fd5b50600436106100575760003560e01c806306619db61461005c5780631f5814e3146100785780638ec1cd2f14610094578063b27f74b3146100c9578063ec4ed1ef146100e5575b600080fd5b61007660048036038101906100719190610c51565b610101565b005b610092600480360381019061008d9190610d32565b610313565b005b6100ae60048036038101906100a99190610d72565b610434565b6040516100c096959493929190610e54565b60405180910390f35b6100e360048036038101906100de9190610eca565b6106b0565b005b6100ff60048036038101906100fa9190610f2f565b61081e565b005b6000808154809291906101139061103f565b91905055506001600054141561012857600190505b3373ffffffffffffffffffffffffffffffffffffffff16600260009054906101000a900473ffffffffffffffffffffffffffffffffffffffff1673ffffffffffffffffffffffffffffffffffffffff1614806101bb57506000811180156101ba57503373ffffffffffffffffffffffffffffffffffffffff168573ffffffffffffffffffffffffffffffffffffffff16145b5b15610306576040518060e0016040528060005481526020018673ffffffffffffffffffffffffffffffffffffffff1681526020018781526020018581526020018463ffffffff1681526020018381526020018281525060036000805481526020019081526020016000206000820151816000015560208201518160010160006101000a81548173ffffffffffffffffffffffffffffffffffffffff021916908373ffffffffffffffffffffffffffffffffffffffff1602179055506040820151816002019080519060200190610292929190610984565b5060608201518160030190805190602001906102af929190610984565b5060808201518160040160006101000a81548163ffffffff021916908363ffffffff16021790555060a08201518160050190805190602001906102f3929190610984565b5060c0820151816006015590505061030b565b600080fd5b505050505050565b600260009054906101000a900473ffffffffffffffffffffffffffffffffffffffff1673ffffffffffffffffffffffffffffffffffffffff163373ffffffffffffffffffffffffffffffffffffffff161415806103d157506003600083815260200190815260200160002060010160009054906101000a900473ffffffffffffffffffffffffffffffffffffffff1673ffffffffffffffffffffffffffffffffffffffff163373ffffffffffffffffffffffffffffffffffffffff16145b156103db57600080fd5b806003600084815260200190815260200160002060010160006101000a81548173ffffffffffffffffffffffffffffffffffffffff021916908373ffffffffffffffffffffffffffffffffffffffff1602179055505050565b606060006060600060606000600360008881526020019081526020016000206002016003600089815260200190815260200160002060010160009054906101000a900473ffffffffffffffffffffffffffffffffffffffff16600360008a8152602001908152602001600020600301600360008b815260200190815260200160002060040160009054906101000a900463ffffffff16600360008c8152602001908152602001600020600501600360008d815260200190815260200160002060060154858054610503906110b7565b80601f016020809104026020016040519081016040528092919081815260200182805461052f906110b7565b801561057c5780601f106105515761010080835404028352916020019161057c565b820191906000526020600020905b81548152906001019060200180831161055f57829003601f168201915b5050505050955083805461058f906110b7565b80601f01602080910402602001604051908101604052809291908181526020018280546105bb906110b7565b80156106085780601f106105dd57610100808354040283529160200191610608565b820191906000526020600020905b8154815290600101906020018083116105eb57829003601f168201915b5050505050935081805461061b906110b7565b80601f0160208091040260200160405190810160405280929190818152602001828054610647906110b7565b80156106945780601f1061066957610100808354040283529160200191610694565b820191906000526020600020905b81548152906001019060200180831161067757829003601f168201915b5050505050915095509550955095509550955091939550919395565b600260009054906101000a900473ffffffffffffffffffffffffffffffffffffffff1673ffffffffffffffffffffffffffffffffffffffff163373ffffffffffffffffffffffffffffffffffffffff161461070a57600080fd5b600460008273ffffffffffffffffffffffffffffffffffffffff1673ffffffffffffffffffffffffffffffffffffffff16815260200190815260200160002060030160009054906101000a900460ff16156107bf576000600460008373ffffffffffffffffffffffffffffffffffffffff1673ffffffffffffffffffffffffffffffffffffffff16815260200190815260200160002060030160006101000a81548160ff02191690831515021790555061081b565b6001600460008373ffffffffffffffffffffffffffffffffffffffff1673ffffffffffffffffffffffffffffffffffffffff16815260200190815260200160002060030160006101000a81548160ff0219169083151502179055505b50565b600260009054906101000a900473ffffffffffffffffffffffffffffffffffffffff1673ffffffffffffffffffffffffffffffffffffffff163373ffffffffffffffffffffffffffffffffffffffff161461087857600080fd5b6040518060a001604052808681526020018581526020018481526020018315158152602001821515815250600460008873ffffffffffffffffffffffffffffffffffffffff1673ffffffffffffffffffffffffffffffffffffffff16815260200190815260200160002060008201518160000190805190602001906108fe929190610984565b50602082015181600101908051906020019061091b929190610984565b506040820151816002019080519060200190610938929190610984565b5060608201518160030160006101000a81548160ff02191690831515021790555060808201518160030160016101000a81548160ff021916908315150217905550905050505050505050565b828054610990906110b7565b90600052602060002090601f0160209004810192826109b257600085556109f9565b82601f106109cb57805160ff19168380011785556109f9565b828001600101855582156109f9579182015b828111156109f85782518255916020019190600101906109dd565b5b509050610a069190610a0a565b5090565b5b80821115610a23576000816000905550600101610a0b565b5090565b6000604051905090565b600080fd5b600080fd5b600080fd5b600080fd5b6000601f19601f8301169050919050565b7f4e487b7100000000000000000000000000000000000000000000000000000000600052604160045260246000fd5b610a8e82610a45565b810181811067ffffffffffffffff82111715610aad57610aac610a56565b5b80604052505050565b6000610ac0610a27565b9050610acc8282610a85565b919050565b600067ffffffffffffffff821115610aec57610aeb610a56565b5b610af582610a45565b9050602081019050919050565b82818337600083830152505050565b6000610b24610b1f84610ad1565b610ab6565b905082815260208101848484011115610b4057610b3f610a40565b5b610b4b848285610b02565b509392505050565b600082601f830112610b6857610b67610a3b565b5b8135610b78848260208601610b11565b91505092915050565b600073ffffffffffffffffffffffffffffffffffffffff82169050919050565b6000610bac82610b81565b9050919050565b610bbc81610ba1565b8114610bc757600080fd5b50565b600081359050610bd981610bb3565b92915050565b600063ffffffff82169050919050565b610bf881610bdf565b8114610c0357600080fd5b50565b600081359050610c1581610bef565b92915050565b6000819050919050565b610c2e81610c1b565b8114610c3957600080fd5b50565b600081359050610c4b81610c25565b92915050565b60008060008060008060c08789031215610c6e57610c6d610a31565b5b600087013567ffffffffffffffff811115610c8c57610c8b610a36565b5b610c9889828a01610b53565b9650506020610ca989828a01610bca565b955050604087013567ffffffffffffffff811115610cca57610cc9610a36565b5b610cd689828a01610b53565b9450506060610ce789828a01610c06565b935050608087013567ffffffffffffffff811115610d0857610d07610a36565b5b610d1489828a01610b53565b92505060a0610d2589828a01610c3c565b9150509295509295509295565b60008060408385031215610d4957610d48610a31565b5b6000610d5785828601610c3c565b9250506020610d6885828601610bca565b9150509250929050565b600060208284031215610d8857610d87610a31565b5b6000610d9684828501610c3c565b91505092915050565b600081519050919050565b600082825260208201905092915050565b60005b83811015610dd9578082015181840152602081019050610dbe565b83811115610de8576000848401525b50505050565b6000610df982610d9f565b610e038185610daa565b9350610e13818560208601610dbb565b610e1c81610a45565b840191505092915050565b610e3081610ba1565b82525050565b610e3f81610bdf565b82525050565b610e4e81610c1b565b82525050565b600060c0820190508181036000830152610e6e8189610dee565b9050610e7d6020830188610e27565b8181036040830152610e8f8187610dee565b9050610e9e6060830186610e36565b8181036080830152610eb08185610dee565b9050610ebf60a0830184610e45565b979650505050505050565b600060208284031215610ee057610edf610a31565b5b6000610eee84828501610bca565b91505092915050565b60008115159050919050565b610f0c81610ef7565b8114610f1757600080fd5b50565b600081359050610f2981610f03565b92915050565b60008060008060008060c08789031215610f4c57610f4b610a31565b5b6000610f5a89828a01610bca565b965050602087013567ffffffffffffffff811115610f7b57610f7a610a36565b5b610f8789828a01610b53565b955050604087013567ffffffffffffffff811115610fa857610fa7610a36565b5b610fb489828a01610b53565b945050606087013567ffffffffffffffff811115610fd557610fd4610a36565b5b610fe189828a01610b53565b9350506080610ff289828a01610f1a565b92505060a061100389828a01610f1a565b9150509295509295509295565b7f4e487b7100000000000000000000000000000000000000000000000000000000600052601160045260246000fd5b600061104a82610c1b565b91507fffffffffffffffffffffffffffffffffffffffffffffffffffffffffffffffff82141561107d5761107c611010565b5b600182019050919050565b7f4e487b7100000000000000000000000000000000000000000000000000000000600052602260045260246000fd5b600060028204905060018216806110cf57607f821691505b602082108114156110e3576110e2611088565b5b5091905056fea2646970667358221220275b6ac2cbe58786e5a8a46b1cc5eb66f70f580ad7566012ad1fc5d24fc23ace64736f6c634300080a0033",
  "immutableReferences": {},
  "source": "// SPDX-License-Identifier: MIT\r\npragma solidity >=0.6.6;\r\n\r\ncontract HistoriasContract {\r\n\r\n\tuint256 private counter = 0;\r\n\tuint256 private countEmp = 0;\r\n\taddress private owner = 0x308925e628AA5011488cE4306b61571D695C08dD;\r\n\r\n\t//Struct para el formato base de historias clnicas registradas.\r\n\tstruct History {\r\n\t\tuint256 id;\r\n\t\taddress custo;\r\n\t\tstring nombre;\r\n\t\tstring desc;\r\n\t\tuint32 fec_cr;\r\n\t\t//definir array\r\n\t\tstring _hashs;\r\n\t\tuint256 main;\r\n\t}\r\n\r\n\t//Formato base para el registro de empleados\r\n\tstruct Employed\r\n\t{\r\n\t\tstring name;\r\n\t\tstring doc;\r\n\t\tstring description;\r\n\t\tbool state;\r\n\t\tbool onlyReader;\r\n\t}\r\n\r\n\t//Definimos el tipo de dato que va a almacenar la historia\r\n\tmapping (uint256  => History) private his;\r\n\tmapping (address => Employed) private emp;\r\n\r\n\t//Declare an Event\r\n\tevent Deposit(string);\r\n\r\n\r\n\r\n//Emit an event\r\n\r\n\t//Value to save:\r\n\t//\"Historia Clnica\", 0xFc67a62E89577fE773ceC669C7e8D78c7Bd8a37c, \"Evidencia de registro #1234567\", \"20211210\", \"QmUzsDZzfXrpqsXF19HRHDLCDneRcHoTNcoD27BJXZgXjz\", 0\r\n\t function savHis(string memory _nom, address _cus, string memory _desc, uint32 _fec,  string memory _hashs, uint256 _m) public {\r\n\t\tcounter++;\r\n\t\tif(counter == 1){_m = 1;\r\n\t\t}\r\n\r\n\r\n\t\tif(owner == msg.sender || (_m > 0 && _cus == msg.sender) )\r\n\t\t{\r\n\t\t\this[counter] = History(counter,_cus,_nom,_desc,_fec, _hashs, _m);\r\n\t\t}else{\r\n\t\t\trevert();\r\n\t\t}\r\n\t}\r\n\r\n\r\n\t//registramos el empleado que podr tener acceso\r\n\t//Example  0x63AbAF2282d20f664287f468843182Cc60aa1549, \"Edison Rave Molina\", \"1038768950\", \"Empleado de almacen hospital\", true, false\r\n\tfunction registerEmployed(address _empHas, string memory _nom, string memory _doc, string memory _des, bool _state, bool _onlyReader) public {\r\n\t\tif(msg.sender != owner)\r\n\t\t{\r\n\t\t\trevert();\r\n\t\t}\r\n\temp[_empHas] = Employed(_nom, _doc, _des, _state, _onlyReader);\r\n\t}\r\n\r\n\r\n\r\n\t//deshabilitar Empleado\r\n   //example 0x63AbAF2282d20f664287f468843182Cc60aa1549\r\n\tfunction disabled(address _emp) public{\r\n\t\tif(msg.sender != owner ) {\r\n\t\t\trevert();\r\n\t\t}\r\n\t\tif(emp[_emp].state){\r\n\t\t\temp[_emp].state = false;\r\n\t\t}\r\n\t\telse{\r\n\t\t\temp[_emp].state = true;\r\n\t\t}\r\n\t}\r\n\r\n\r\n\t//Permite registrar una wallet encargada del documento.\r\n\t//example 1, 0x63AbAF2282d20f664287f468843182Cc60aa1549\r\n\tfunction setCustodi(uint256 _id, address _cust) public{\r\n\t\tif(msg.sender != owner || msg.sender == his[_id].custo ) {\r\n\t\t\trevert();\r\n\t\t}\r\n\t\this[_id].custo = _cust;\r\n\t}\r\n\r\n\r\n\r\n\r\n\t//Metodo que permite obtener la historia por id\r\n\t//example 1\r\n\tfunction getH(uint256 _id) public view  returns (string memory _n, address _c, string memory _d, uint32 _f,  string memory _h, uint256 _m) {\r\n\t\treturn (his[_id].nombre, his[_id].custo, his[_id].desc, his[_id].fec_cr, his[_id]._hashs, his[_id].main);\r\n\t}\r\n\r\n}\r\n\r\n",
  "sourcePath": "C:\\Users\\Edison\\Documents\\proyectos\\tfm\\contracts\\contracts\\HistoriasContract.sol",
  "compiler": {
    "name": "solc",
    "version": "0.8.10+commit.fc410830.Emscripten.clang"
  },
  "schemaVersion": "3.4.3",
  "updatedAt": "2021-12-23T04:19:16.945Z",
  "networkType": "ethereum",
  "devdoc": {
    "kind": "dev",
    "methods": {},
    "version": 1
  },
  "userdoc": {
    "kind": "user",
    "methods": {},
    "version": 1
  }
}